:020000040800F2
:1030000000050020D131000849C6000849C6000863
:1030100049C6000849C6000849C6000849C6000854
:1030200049C6000849C6000849C60008459D000871
:1030300049C6000849C6000849C6000849C6000834
:1030400049C6000849C6000849C6000849C6000824
:1030500049C6000849C6000849C6000849C6000814
:1030600049C6000849C6000849C6000849C6000804
:1030700049C6000849C6000849C6000849C60008F4
:1030800049C6000849C6000849C600086974000816
:103090008574000849C6000849C6000849C60008EA
:1030A00049C6000849C6000849C6000849C60008C4
:1030B0009593000849C6000849C6000849C600089B
:1030C00049C6000849C6000849C6000849C60008A4
:1030D00049C600086197000849C6000849C60008AB
:1030E00049C6000849C6000849C6000849C6000884
:1030F00049C6000849C6000849C6000849C6000874
:1031000049C6000849C6000849C6000849C6000863
:1031100049C6000849C6000849C6000849C6000853
:1031200049C6000849C6000849C6000849C6000843
:1031300049C6000849C6000849C6000849C6000833
:1031400049C6000849C6000849C6000849C6000823
:1031500049C6000849C6000849C6000849C6000813
:1031600040A2E4F164689106000000000000000045
:10317000000000004EC817AA0000813CEB000800C8
:08318000000000000000000047
:10318800217C0008157C0008A5C90008D1C90008E1
:10319800C5410008657C0008F5C90008856E00086F
:1031A80095610008B56400084D4000086D55000899
:0C31B80001560008F9560008D942000832
:1031D00072B6254880F3098824484EF60851CEF28D
:1031E00000010860022080F31488BFF36F8F09F09C
:1031F000E3F901F08FF81E481E491F4A91423CBF77
:1032000041F8040BFAE71D49174A91423CBF41F8C7
:10321000040BFAE71A491B4A1B4B9A423EBF51F86E
:10322000040B42F8040BF8E700201849184A9142B1
:103230003CBF41F8040BFAE709F0CEF909F0C2F9F6
:10324000144C154DAC4203DA54F8041B8847F9E7D7
:1032500009F0B4FB114C124DAC4203DA54F8041BD4
:103260008847F9E709F0B4B9000A002000300008E7
:103270005555555500000020000500200005002090
:1032800000ED0008000A00201C0A0020200A00208F
:103290005415002088310008C4310008C4310008EA
:1032A000C43100082DE9F04FC1F80CD0C3689D4629
:1032B000BDE8F08F07F0DAFD002383F3118828467C
:1032C000A047002006F0E0FF07F0BAFD08F0A2FAE0
:1032D00007F0CCFD00DFFEE742000ED2B2F1FE4F58
:1032E0000BD34FF09E03B3EB126209D44FEA0023D5
:1032F00043F0004323FA02F070474FF0000070479C
:1033000012F1610F01D1420202D14FF0FF3070473C
:103310004FF00000704700BF53B94AB9002908BFF9
:1033200000281CBF4FF0FF314FF0FF3000F03CB8D9
:1033300082B0EC462DE9005000F01EF8DDF804E004
:1033400002B00CBC704700BF2DE9F041069C9046CE
:1033500006460F461D4600F029F808FB01FCA8FBB5
:10336000002300FB05C5B21A2B4467EB0303864616
:10337000C4E90023BDE8F0812DE9F843089E174613
:10338000804689461D4600F067F900FB05F3A0FB67
:10339000074507FB0137B8EB04043D4469EB05051D
:1033A000C6E90045BDE8F883704700BF00292DE954
:1033B000F043C0F2A8800026002BC0F29E80814618
:1033C0008E4690469C46174604460D46002B3DD13E
:1033D0008A4259D9B2FA82F33BB1C3F120029D402F
:1033E00020FA02F29F4015439C40390CB5FBF1F0E6
:1033F0001FFA87FE01FB10550EFB00F3220C42EA78
:103400000545AB4209D9ED1900F1FF3280F00B817F
:10341000AB4240F2088102383D44ED1AB5FBF1F3AE
:1034200001FB13550EFB03FEA4B244EA0545AE456D
:1034300008D9ED1903F1FF3280F0F780AE4540F274
:10344000F480023B43EA0043002203E08B420FD9A1
:1034500000221346341C18BF012460424FF00005BF
:1034600065EB45015840514000196941BDE8F083C2
:10347000B3FA83F2002A40F089808B4202D3804560
:1034800000F2E2800123E5E712B90123B3FBF2F772
:10349000B7FA87F8B8F1000F3BD1ED1B4FEA174C94
:1034A0001FFA87FE0122B5FBFCF00CFB10550EFB4A
:1034B00000F3210C41EA0545AB4207D9ED1900F1B3
:1034C000FF3102D2AB4200F2C3800846ED1AB5FBD1
:1034D000FCF30CFB13550EFB03FEA4B244EA0545B6
:1034E000AE4507D9ED1903F1FF3102D2AE4500F226
:1034F000AD800B4643EA0043ACE752426FEA060652
:1035000063EB43035BE7404261EB41014FF0FF3661
:1035100052E707FA08F7C8F1200225FA02F34FEA4A
:10352000174CB3FBFCF11FFA87FE0CFB113324FA96
:1035300002F205FA08F50EFB01F92A43100C40EAE5
:103540000343994504FA08F407D9DB1901F1FF3068
:1035500078D2994576D902393B44C9EB0303B3FBD2
:10356000FCF00CFB10330EFB00F592B242EA034371
:103570009D4207D9DB1900F1FF325FD29D425DD930
:1035800002383B445D1B40EA01428CE7C2F1200354
:1035900028FA03F10CFA02FC41EA0C0C4FEA1C4039
:1035A0002EFA03F1B1FBF0F51FFA8CF700FB1511B1
:1035B00029FA03F30EFA02FE07FB05F943EA0E0EA1
:1035C0004FEA1E4343EA0141894508FA02F808D947
:1035D00011EB0C0105F1FF3332D2894530D9023DA0
:1035E0006144C9EB0101B1FBF0F300FB131107FBD0
:1035F00003F71FFA8EFE4EEA014E774508D91EEBFF
:103600000C0E03F1FF3117D2774515D9023BE64482
:1036100043EA0543A3FB0889C7EB0E0ECE4509D349
:1036200005D0002216E71046F7E613460AE7944055
:103630004445F6D2013BF4E70B46E9E71046A1E723
:103640001D46CEE7014688E7134603E7023B51E7F4
:1036500002383D443AE700BF2DE9F043002B44D146
:103660008A42154604464FD9B2FA82F70E464FB148
:10367000C7F12003B94020FA03F602FA07F50E431A
:1036800000FA07F42F0CB6FBF7F01FFA85FE07FBD4
:1036900010620EFB00F1260C46EA0243994209D95A
:1036A0005B1900F1FF3280F0EE80994240F2EB802E
:1036B00002382B44591AB1FBF7F307FB13110EFB29
:1036C00003FEA4B244EA01418E4508D9491903F129
:1036D000FF3280F0DA808E4540F2D780023B43EA29
:1036E000004000263146BDE8F0838B4247D8B3FA4C
:1036F00083F6002E48D18B4202D3824200F2CF8063
:1037000001203146BDE8F08312B90125B5FBF2F581
:10371000B5FA85FCBCF1000F78D1491B2F0C1FFABC
:1037200085FE0126B1FBF7F007FB10110EFB00F23E
:10373000230C43EA01418A4207D9491900F1FF33BA
:1037400002D28A4200F2BC801846891AB1FBF7F314
:1037500007FB13110EFB03FEA4B244EA0142964597
:1037600008D9521903F1FF3180F09180964540F25B
:103770008E80023B43EA00403146BDE8F0830026DC
:1037800030463146BDE8F083C6F1200422FA04F544
:10379000B3402B4321FA04F74FEA1348B7FBF8FC78
:1037A0001FFA83F908FB1C7720FA04FE01FA06F5DC
:1037B00009FB0CF44EEA05054FEA154E4EEA0747A1
:1037C000BC4202FA06F204D9FF180CF1FF3168D3AB
:1037D0008C463F1BB7FBF8F408FB147709FB04F990
:1037E000ADB245EA0741894504D9C91804F1FF354E
:1037F0005DD32C4644EA0C44A4FB0223C9EB01012F
:10380000994249D345D0204600266BE7CCF12004ED
:1038100005FA0CF521FA04F32A0CB3FBF2F61FFAB1
:1038200085FE02FB163820FA04F701FA0CF10EFBB4
:1038300006F90F433C0C44EA0843994500FA0CF49E
:1038400007D95B1906F1FF3138D2994536D9023EC6
:103850002B44C9EB0303B3FBF2F002FB10330EFB66
:1038600000F1BFB247EA0343994207D95B1900F15F
:10387000FF3721D299421FD902382B441746591AD3
:1038800040EA06464EE7104614E7134627E70B4684
:1038900070E7B0409042B6D2601E002622E7304664
:1038A00020E7BC4294D9ACF1020C1F4491E7894552
:1038B0009FD9023C19449DE73846DFE70E46C8E72A
:1038C0000238294441E700BF80F0004002E000BF19
:1038D00081F0004142001FBF5FEA410392EA030FFB
:1038E0007FEA226C7FEA236C6AD04FEA1262D2EB45
:1038F0001363C1BFD218414048404140B8BF5B424A
:10390000192B88BF704710F0004F40F4000020F0E2
:103910007F4018BF404211F0004F41F4000121F0F8
:103920007F4118BF494292EA030F3FD0A2F1010242
:1039300041FA03FC10EB0C00C3F1200301FA03F180
:1039400000F0004302D5494260EB4000B0F5000FA3
:1039500013D3B0F1807F06D340084FEA310102F162
:103960000102FE2A51D2B1F1004F40EBC25008BF14
:1039700020F0010040EA03007047490040EB0000DE
:1039800010F4000FA2F10102EDD1B0FA80FCACF10D
:10399000080CB2EB0C0200FA0CF0AABF00EBC2500C
:1039A00052421843BCBFD0401843704792F0000FFA
:1039B00081F4000106BF80F400000132013BB5E74D
:1039C0004FEA41037FEA226C18BF7FEA236C21D0C3
:1039D00092EA030F04D092F0000F08BF0846704728
:1039E00090EA010F1CBF0020704712F07F4F04D1F6
:1039F000400028BF40F00040704712F100723CBF09
:103A000000F50000704700F0004343F0FE4040F432
:103A1000000070477FEA226216BF08467FEA2363F0
:103A20000146420206BF5FEA412390EA010F40F4DB
:103A3000800070474FF0000304E000BF10F0004327
:103A400048BF40425FEA000C08BF704743F096430E
:103A500001464FF000001CE050EA010208BF704729
:103A60004FF000030AE000BF50EA010208BF7047B0
:103A700011F0004302D5404261EB41015FEA010CC5
:103A800002BF84460146002043F0B64308BFA3F1BD
:103A90008053A3F50003BCFA8CF2083AA3EBC2539F
:103AA00010DB01FA02FC634400FA02FCC2F12002BE
:103AB000BCF1004F20FA02F243EB020008BF20F0F5
:103AC0000100704702F1200201FA02FCC2F120025B
:103AD00050EA4C0021FA02F243EB020008BF20EA50
:103AE000DC7070474FF0FF0C1CEAD0521EBF1CEA7E
:103AF000D15392EA0C0F93EA0C0F6FD01A4480EA6C
:103B0000010C400218BF5FEA41211ED04FF0006354
:103B100043EA501043EA5111A0FB01310CF0004080
:103B2000B1F5000F3EBF490041EAD3715B0040EAA6
:103B3000010062F17F02FD2A1DD8B3F1004F40EB76
:103B4000C25008BF20F00100704790F0000F0CF049
:103B5000004C08BF49024CEA502040EA51207F3A0D
:103B6000C2BFD2F1FF0340EAC250704740F40000E8
:103B70004FF00003013A5DDC12F1190FDCBF00F0D9
:103B800000407047C2F10002410021FA02F1C2F187
:103B9000200200FA02FC5FEA310040F1000053EA23
:103BA0004C0308BF20EADC70704792F0000F00F071
:103BB000004C02BF400010F4000F013AF9D040EA77
:103BC0000C0093F0000F01F0004C02BF490011F40B
:103BD000000F013BF9D041EA0C018FE70CEAD15309
:103BE00092EA0C0F18BF93EA0C0F0AD030F0004C89
:103BF00018BF31F0004CD8D180EA010000F000403D
:103C0000704790F0000F17BF90F0004F084691F0FA
:103C1000000F91F0004F14D092EA0C0F01D1420234
:103C20000FD193EA0C0F03D14B0218BF084608D1FD
:103C300080EA010000F0004040F0FE4040F4000047
:103C4000704740F0FE4040F4400070474FF0FF0CDA
:103C50001CEAD0521EBF1CEAD15392EA0C0F93EA21
:103C60000C0F69D0A2EB030280EA010C49024FEA73
:103C7000402037D04FF0805343EA111143EA10132C
:103C80000CF000408B4238BF5B0042F17D024FF4E4
:103C9000000C8B4224BF5B1A40EA0C00B3EB510FBF
:103CA00024BFA3EB510340EA5C00B3EB910F24BFA8
:103CB000A3EB910340EA9C00B3EBD10F24BFA3EB2D
:103CC000D10340EADC001B0118BF5FEA1C1CE0D1F5
:103CD000FD2A3FF650AF8B4240EBC25008BF20F0A8
:103CE000010070470CF0004C4CEA50207F32C2BFFC
:103CF000D2F1FF0340EAC250704740F400004FF099
:103D00000003013A37E792F0000F00F0004C02BFC9
:103D1000400010F4000F013AF9D040EA0C0093F093
:103D2000000F01F0004C02BF490011F4000F013BED
:103D3000F9D041EA0C0195E70CEAD15392EA0C0F55
:103D400008D142027FF47DAF93EA0C0F7FF470AF8D
:103D5000084676E793EA0C0F04D14B023FF44CAFD0
:103D600008466EE730F0004C18BF31F0004CCAD165
:103D700030F000427FF45CAF31F000437FF43CAFA1
:103D80005FE700BF90B587B002AF7860786800F059
:103D90008DF8034683F00103DBB2002B03D0786873
:103DA00001F0F8FC2EE000F095F80346184617499C
:103DB000FFF798FE034618461549FFF78BFD0346AB
:103DC000FB607B6808331348194604F0FDFD7B68EF
:103DD00003F10804F868FFF77FFA024642F2107315
:103DE00003FB02F303F2E7330B4AA2FB03239B0915
:103DF0009BB200930023019306482146074A7B6843
:103E000004F056FD1437BD4690BD00BF0000C84306
:103E100000001644200A0020D34D6210C15700084C
:103E200090B587B002AF7860786800F03FF803463D
:103E300083F00103DBB2002B03D0786801F0AAFC09
:103E400029E000F047F8034618461449FFF74AFEF8
:103E50000346FB607B6808331148194604F0B4FD43
:103E60007B6803F10804F868FFF736FA024642F26D
:103E7000107303FB02F303F2E7330A4AA2FB0323A6
:103E80009B099BB200930023019305482146064AF3
:103E90007B6804F00DFD1437BD4690BD0000C8439B
:103EA000200A0020D34D6210C157000880B582B0AF
:103EB00000AF78607B681B78184602F089FC0346E7
:103EC000002B0CBF01230023DBB218460837BD4688
:103ED00080BD00BF80B586B000AF1F4B1B68002BB4
:103EE0001AD13B1D1846102100F01AFA3B1D7B61C8
:103EF00003F0CEFE02467B691B685A407B6904339F
:103F00001B685A407B6908331B685A407B690C3335
:103F10001B685340104A13600F4B1B680F4A02FB8B
:103F200003F30D4A13600C4B1B68DA0A0A4B1B683B
:103F30005340094A1268920F0B32D3409BB2184685
:103F4000FFF778FD034618460549FFF77FFE034655
:103F500018461837BD4680BDF4140020B577922C62
:103F600000FF7F4780B400AFBFF34F8F0549054B7B
:103F7000DB6803F4E062044B1343CB60BFF34F8F65
:103F800000BFFDE700ED00E00400FA052DE9B04FA9
:103F900086B000AFF860F9680C464FF00005204687
:103FA00029464FEA810B4BEA907B4FEA800A504644
:103FB00059464B0143EAD0634201121A63EB0103F5
:103FC000A41845EB030522462B46990079607968D1
:103FD00041EA9271796091003960D7E90001801857
:103FE00041EB030102460B464FEA031949EA1279F5
:103FF0004FEA021842464B461046194640F2E73255
:104000004FF00003121843EB0103104619464FF41A
:104010007A724FF00003FFF77FF902460B46C7E9BB
:104020000423D7E904234FF6FE704FF000019942B4
:1040300008BF904202D2044806F0B4FE3B8A1846FC
:104040001837BD46BDE8B08FDCEC000880B584B001
:1040500002AF0020074902F07BFB78600023009349
:10406000054806497A68064B04F0D0FC0837BD467F
:1040700080BD00BF38E70008200A00200C15002092
:104080009940000880B582B000AF7860FFF76AFF02
:104090000837BD4680BD00BF80B58AB002AFF8606A
:1040A000B9607A60BB68FB61FB691033BB610023B8
:1040B0003B75BB69D3E9002316A1D1E900018B420E
:1040C00008BF824213D103F0D5FE0346002B0ED069
:1040D00001233B750A20FFF759FF03460093002395
:1040E0000193094809490A4A002304F0E1FBFB69EE
:1040F0001A7807F114031046F9691A4600F068FFB0
:104100002037BD4680BD00BF200A0020F8140020E3
:10411000854000081E1B55CEAC0000000CB480B5D5
:10412000A8B000AF03463960FB7107F1080207F140
:1041300020032233104619465A22002300F052FC75
:1041400007F10803C7F89C3007F1AC03FB61D7F80F
:104150009C00D7F8A810FA6900F07CF90346592BA7
:1041600009D8D7F89C00D7F8A810FA6900F072F9BE
:104170000346DBB200E05A2387F8413038681F213C
:104180000AF02AFA0346DBB287F8213097F821308B
:104190001A4607F120030233184639680AF0EEF98F
:1041A000FB7987F8203007F12003002004491F2203
:1041B00000F0CAFEA037BD46BDE8804002B070479F
:1041C00078E7000880B582B002AF4CF2503300931C
:1041D0000123019303480449044A002304F068FBC7
:1041E000BD4680BD200A002040150020A9420008DD
:1041F00080B586B002AF786039603B68BB60002351
:10420000FB60BA68FB6813441B78552B03D1FB682D
:104210000133FB60F5E7FB68009301200349044A82
:104220007B68FFF77BFF1037BD4680BDF8E50008CF
:10423000FCE5000880B582B000AF78607B68DB6980
:10424000002B06D17B689B6918460F49FFF7D0FF0A
:1042500016E07B68DB690D4A934208D17B689A6956
:104260007B68DB6910461946FFF7C2FF08E07B68F0
:104270009A697B68DB69383310461946FFF7B8FF47
:104280000837BD4680BD00BF000500206812002031
:1042900080B500AF02480349FFF7AAFF80BD00BF09
:1042A0000CE600080000002080B584B000AF786004
:1042B00006F060F9F86006E0F868FFF7BBFFF86801
:1042C00006F072F9F860FB68002BF5D1FFF7E0FF0C
:1042D0001037BD4680BD00BF80B500AF05F000FCC3
:1042E0000346B3F5007F02D2002006F05BFD05F027
:1042F000F7FB034601200449044AFFF70FFF044B74
:1043000000221A7080BD00BFF8E5000818E600081A
:10431000180A002080B500AF04F04EFF80BD00BF3A
:1043200080B586B000AF78600B46FB70124B1B68FF
:10433000FB60124B1B683B61114B1B687B61FB7878
:104340000C2B0DD9FB78786800211A460AF03CF94D
:1043500007F10C03786819460C220AF00FF907E000
:10436000FB7807F10C02786811461A460AF006F944
:104370001837BD4680BD00BFF0F7FF1FECF7FF1FE9
:10438000E8F7FF1F80B489B000AFF860B9607A60C9
:104390003B60BB687B613B68002B02D1BB683B6123
:1043A00001E03B683B61FB680B33BB617B697A686A
:1043B000B3FBF2F2796801FB02F29B1AFB61FB6925
:1043C0003033FB61FB69392B02DDFB690733FB618D
:1043D000BB69013BBB61FB69DAB2BB691A707A69E0
:1043E0007B68B2FBF3F37B613A697B68B2FBF3F362
:1043F0003B613B69002BD9D1FB680B331A46BB6983
:10440000D31AFB61FB685A1CFA60BA69511CB96186
:1044100012781A70FB69013BFB61FB69002BF1D13B
:10442000FB6818462437BD465DF8047B704700BF23
:1044300080B584B000AFF860B9607A60F868B96898
:104440007A680023FFF79EFF034618461037BD46E3
:1044500080BD00BF80B590B000AFF860B9607A60F1
:1044600000237B62BB685A1CBA601B7887F8373020
:1044700097F83730002B01D17B6A0EE297F837307E
:10448000252B0BD0FB681B689B6897F83720F868D2
:10449000114698477B6A01337B62E3E707F110031B
:1044A000FB6307F11003BB63002387F82230BB686E
:1044B0001B782D2B05D1BB680133BB60012387F826
:1044C0002230202387F83630BB681B78302B05D18B
:1044D000BB680133BB60302387F836300023BB62F2
:1044E000BB685A1CBA601B7887F8373097F83730AA
:1044F0002F2B09D997F83730392B05D897F8373053
:10450000303B87F8373009E097F837302A2B10D145
:104510007B681A1D7A601B6887F83730BA6A1346C1
:104520009B0013445B001A4697F837301344BB6274
:10453000D6E70023FB6297F837302E2B29D1BB68D2
:104540005A1CBA601B7887F8373097F837302F2B12
:1045500009D997F83730392B05D897F83730303BE1
:1045600087F8373009E097F837302A2B11D17B686C
:104570001A1D7A601B6887F83730FA6A13469B0069
:1045800013445B00FB6297F83730FA6A1344FB620E
:10459000D5E797F837306C2B03D097F837304C2B92
:1045A0000DD1012387F82330BB681B78002B1AD06C
:1045B000BB685A1CBA601B7887F8373014E097F84C
:1045C0003730402B05D997F837305A2B01D80123C3
:1045D00000E0002387F8233097F8233003F001032D
:1045E00087F8233000E000BF97F83730443B342B86
:1045F00000F2E38001A252F823F000BF3347000825
:10460000BB470008BB470008BB470008BB47000882
:1046100033470008BB470008BB470008BB470008FA
:10462000BB470008BB47000885470008BB47000898
:10463000BB470008BB470008BB470008BB47000852
:104640007D470008BB470008BB47000875470008C6
:10465000BB470008BB470008BB470008BB47000832
:10466000BB470008BB470008BB470008BB47000822
:10467000BB470008BB470008D14600083347000885
:10468000BB470008BB470008BB470008BB47000802
:1046900033470008BB470008BB470008BB4700087A
:1046A000BB470008BB47000885470008BB47000818
:1046B000BB470008BB470008EB460008BB470008A3
:1046C0007D470008BB470008BB4700087547000846
:1046D000202387F83630FB6B5A1CFA637A68111D69
:1046E00079601268D2B21A706DE0202387F83630F4
:1046F0007B681A1D7A601B68BB63BB6B002B01D102
:10470000684BBB63FB6A002B02D147F6FF73FB6269
:10471000BB6BFB6302E0FB6B0133FB63FB6B1B7842
:10472000002B50D0FB6A013BFB62FB6A002BF2DAE4
:1047300049E097F82330002B05D07B681A1D7A607A
:104740001B68FB6104E07B681A1D7A601B68FB61D3
:10475000FB69002B07DAFB6B5A1CFA632D221A70D7
:10476000FB695B42FB61F86BF9690A22FFF760FEA7
:10477000F86328E0102387F8373006E00A2387F82B
:10478000373002E0082387F8373097F82330002BC2
:1047900005D07B681A1D7A601B68FB6104E07B68AA
:1047A0001A1D7A601B68FB6197F83730F86BF9695E
:1047B0001A46FFF73DFEF86305E0FB6B5A1CFA63EF
:1047C00097F837201A70FA6BBB6BD31A3B63BA6A3F
:1047D0003B6BD31ABB62BB6A002B01DA0023BB62BE
:1047E00097F8223083F00103DBB2002B02D0BB6AC2
:1047F0005B42BB62BB6A002B36DABB6B1B782D2B8E
:1048000013D197F83630302B0FD1FB681B689A68AC
:10481000BB6B591CB9631B78F868194690477B6AD3
:1048200001337B623B6B013B3B63FB681B689B680E
:1048300097F83620F868114698477B6A01337B6207
:10484000BB6A0133BB62BB6A002BEED10CE0FB6894
:104850001B689A68BB6B591CB9631B78F8681946CA
:1048600090477B6A01337B623B6B013B3B633B6B55
:10487000002BECDA0DE0FB681B689B6897F836208C
:10488000F868114698477B6A01337B62BB6A013B3B
:10489000BB62BB6A002BEED1E4E518464037BD464B
:1048A00080BD00BF24E6000880B586B000AFF86088
:1048B000B9607A60FB687B617B699A687B69DB68B9
:1048C000D21A7B689A4205D27B699A687B69DB6859
:1048D000D31A7B607B695A687B69DB68134418468E
:1048E000B9687A6809F04AFE7B69DA687B681A441D
:1048F0007B69DA607B6818461837BD4680BD00BF0B
:1049000080B586B000AFF860B9607A60FB687B6103
:104910007B69DA687B691B69D21A7B689A4205D287
:104920007B69DA687B691B69D31A7B607B695A688B
:104930007B691B691344B86819467A6809F01EFE42
:104940007B691A697B681A447B691A617B6818461F
:104950001837BD4680BD00BF80B485B000AF786019
:104960000B46FB707B68FB60FB689A68FB68DB6842
:104970009A4202D16FF001030CE0FB685A68FB68B1
:10498000DB681344FA781A70FB68DB685A1CFB6812
:10499000DA60002318461437BD465DF8047B704783
:1049A00080B485B000AF78607B68FB60FB68DA6834
:1049B000FB681B699A4202D16FF001030CE0FB68AF
:1049C0005A68FB681B6913441B78FB72FB681B6900
:1049D0005A1CFB681A61FB7A18461437BD465DF80D
:1049E000047B704780B485B000AFF860B9607A602E
:1049F0003B60FB68094A1A60FB68BA685A60FB684A
:104A00007A689A60FB683A68DA60FB6800221A618B
:104A10001437BD465DF8047B704700BFE8EC000822
:104A200080B582B000AF78600B46FB707B68002BCE
:104A300017D07B685A68FB78002B14BF0123002332
:104A4000DBB21046194603F01BF801F08FFC7B68BF
:104A500003F10802FB781046194608F01BF801F034
:104A60008DFC0837BD4680BD80B582B000AF0346DF
:104A70000A46FB711346BB71FB79184600F020FB18
:104A80000246BB7910461946FFF7CAFF0837BD46F4
:104A900080BD00BF2DE9704F01F00706089C32442D
:104AA00096424FEAD1014FEAD40904F0070C2DD009
:104AB00008444FF47F4106F0070B0CF007055D45F5
:104AC0002C4638BF5C46C6EB020EC4F10804A6456E
:104AD00028BFA646F40810F804A009EBDC0821FA68
:104AE0000EF40AFA0BFAE4B213F808B04AFA05FA1F
:104AF00044FA05F505EA0A0A2BEA050476444AEA6F
:104B00000404B242F44403F80840D4D1BDE8708FE5
:104B10001378002B46D1002944D02DE9704FD4687A
:104B200082B00E4680461546002C50D04FF0000B48
:104B300005F1080A17E06A68AB6850685146D3F877
:104B4000189000F043FFE86068B304724472847206
:104B5000C472047344738473C473B9F1000F27D013
:104B60002C615E4521D92A69CBEB0604C2F13803DA
:104B70009C4228BF1C46002CDDD0EB6859460092B1
:104B8000083322464046FFF785FF2B69EA68234435
:104B90002B6107331178DB08013363F38501A344EC
:104BA0001170DEE7704701232B7002B0BDE8708FF3
:104BB000AA68EB68B2F80D1005221981A96801F105
:104BC0000A00083109F0E5FC10232B61C9E753689E
:104BD00002F10801586800F0F9FEE8600028E2D010
:104BE000047244728472C472047344738473C47311
:104BF0009CE700BF80B58EB000AFF860B960114689
:104C00001A460B46FB8013467B71FB68002B09D0CC
:104C1000BB68002B06D0BB685B69002B02D0BB6C65
:104C2000002B01D1002383E1F86801F0B7FD0346B2
:104C3000002B08D1FB88032B03D8BB689B7A022B7F
:104C400001D0002374E1BB689B7A022B04D0FB885F
:104C5000FF2B01D900236BE1F86801F09FFD0346AB
:104C6000DBB25BB2002B01DA002361E100233B766B
:104C7000FB68FB6100233B6200237B620023BB6275
:104C8000BB685B6907F11802B86CAB4998473B7E7B
:104C9000002B02D13B6A002B0AD1FB685A6807F14E
:104CA000180308331046194600F0E2FE00233FE1E6
:104CB000A24B02221A61A24B1B681B68A048A149A3
:104CC0000522984700237B637B7903F01F031B06B3
:104CD0007A6B13437B63BB689B7A022B05D1FB88FD
:104CE0001B027A6B13437B6318E0FB881B041A4694
:104CF0007B6B13437B63BB689B7A012B03D17B6B7C
:104D000043F400437B6397F844301B021A467B6BE5
:104D100013437B637B6B43F080037B63F86801F094
:104D20003DFD0346002B10D13B6A0833184607218E
:104D30004FF6FF7202F032FF03461A464FF6FC733D
:104D400013401B027A6B13437B63F86801F026FD66
:104D500003461A467B6B13437B63002387F833308B
:104D60003B6AFB6288E0FA6A137843F0020313702F
:104D7000FA6A13786FF3000313707B6B23F06041C2
:104D8000FA6A536861F31C0353603A6AFB6A9A42F9
:104D900015D1FB6A1B78C3F38303DBB2013BFA6ACC
:104DA0001278C2F38302D2B2013AF96A0A44127A43
:104DB00062F07F02D1B2FA6A13440A461A727A6A22
:104DC000FB6A9A4215D1FB6A1B78C3F38303DBB2FB
:104DD000013BFA6A1278C2F38302D2B2013AF96A4D
:104DE0000A44127A42F04002D1B2FA6A13440A46E7
:104DF0001A72FB6A1B78C3F38303DBB2013BFA6AC6
:104E00001278C2F38302D2B2013AF96A0A44127AE2
:104E1000D1B297F833205201D2B20A43D2B2D1B202
:104E2000FA6A13440A461A72FB6A1B78C3F38303B7
:104E3000DBB2013BFA6A1278C2F38302D2B2013AC2
:104E4000F96A0A44127AD1B297F8402002F01F02A0
:104E5000D2B20A43D2B2D1B2FA6A13440A461A72E3
:104E600097F83330002B0CBF01230023DBB287F807
:104E70003330FB6A9B69FB62FB6A002B7FF473AFE4
:104E80003A6A7B6A9A4246D0BB68184608214FF6B8
:104E9000FF7202F083FE0346FB823B6AFB62FB6A01
:104EA00003F10A02FB8A104605211A4602F076FE3B
:104EB0000346FB82FB6A9B69FB620DE0FB6A03F120
:104EC0000802FB8A104607211A4602F067FE0346D5
:104ED000FB82FB6A9B69FB62FB6A9B69002BEDD13D
:104EE000FB6A03F10802FB6A1B78C3F38303DBB29E
:104EF000013B1946FB8A10461A4602F04FFE034654
:104F0000FB823B6A03F1080207F1160310461946BB
:104F1000022209F033FBFB685A6807F118030833D3
:104F2000104619464FF6FF72002300F063FD01237F
:104F300018463837BD4680BD114B0008000C0140B3
:104F4000AC1300202CE6000890B58DB004AFB9601A
:104F50007B600346FB731346BB73FB7B184600F074
:104F6000AFF8F861FB69002B01D100232BE0BB688F
:104F70001B897B8301F0FAF9FB6903F130027B8B1B
:104F8000104600211A46002300F022FA786101F051
:104F9000F5F97B691B787A8BBC7B00930023019326
:104FA0007B680293F869B9682346FFF723FE03463E
:104FB000002B07D07B691B780133DAB27B691A704A
:104FC000012300E0002318462437BD4690BD00BFF2
:104FD00090B58DB004AF0346B9607A60FB73FB7B7C
:104FE000184600F06DF8F861FB69002B01D1002331
:104FF0001DE0BB685B68DB69BB61BB68DB7AFB7586
:10500000BB689B7ABB75BB681B7B7B75BB691B89C7
:105010007B827A8AFC7DBB7D00937B7D01937B68DC
:105020000293F869B9692346FFF7E4FD0346184681
:105030002437BD4690BD00BF80B58CB000AFF8608E
:10504000B9607A607B68FB62BB68BB62BB6A07F1D0
:1050500010021046194600F093F802F051FEC7E91D
:105060000801FB6A03F1080207F110031046194614
:10507000D7E9082307F034FD024B02225A6130378A
:10508000BD4680BD000C014090B585B000AF786092
:105090000023FB6009E0FB6803F1080402F030FE26
:1050A00002460B46204608F049F807F10C03184663
:1050B00001F0D4FA0346002BEDD11437BD4690BD64
:1050C00080B485B000AF0346FB710E4B1B68FB60DC
:1050D00005E0FB79013BFB71FB681B6FFB60FB6824
:1050E000002B02D0FB79002BF3D1FB79002B01D0F0
:1050F000002300E0FB6818461437BD465DF8047BCA
:10510000704700BF9C14002080B483B000AF0B4BED
:105110001B687B600023FB7005E0FB780133FB70AC
:105120007B681B6F7B607B68002BF6D1FB78184691
:105130000C37BD465DF8047B704700BF9C1400200F
:1051400080B485B000AF78600023FB730B4B1B6805
:10515000BB6005E0FB7B0133FB73BB681B6FBB606F
:10516000BB68002B03D0BA687B689A42F2D1FB7B04
:1051700018461437BD465DF8047B70479C14002028
:1051800090B587B000AF786039603B681B7803F05A
:105190000203DBB2002B07D03B685B68C3F31C0340
:1051A00043F00043BB6005E03B689B88C3F30A0300
:1051B0009BB2BB603B681B7803F00103DBB2002BA2
:1051C00003D0BB6843F08043BB603B681B78C3F3EC
:1051D0008303DBB23B753B6803F108023B7D1C4651
:1051E00007F10803043318461146224609F0C6F9B0
:1051F0007B681C4607F108030FCB84E80F00786832
:105200001C37BD4690BD00BF80B586B000AFF860CA
:10521000B9607A607B687B61BB683B617B691A78A7
:105220003B691A707B699A683B695A607B695B6865
:10523000DA8A3B691A817B695B685A7E3B699A729C
:105240007B695B689A7E3B69DA727B695B68DA7EB0
:105250003B691A737B699B689B697A6951683A69F3
:1052600010320846114698471837BD4680BD00BF2A
:1052700080B588B000AF786039607B68002B3CD087
:105280003B68002B39D0786807F0F8FBB861BB6940
:10529000002B32D0BB69DB6EFB612BE0FB691B6826
:1052A0009A7A3B681B7E9A4221D1FB691B68B869D8
:1052B000194601F061FA03461A463B68DB8A9A42B6
:1052C00015D1BB691B783B733B683B61FB691B686D
:1052D0007B61FB69191DFB691B68DB6803F1100228
:1052E00007F10C0308461146054A03F025F8FB694F
:1052F0001B69FB61FB69002BD0D12037BD4680BD07
:105300000952000880B586B000AFF860B960114658
:105310001A460B46FB8013467B71FB68002B02D0BC
:10532000BB68002B01D100232DE0F86807F0A6FB35
:1053300038613B69002B01D1002324E03B69DB6E1F
:105340007B611CE07B691B689B7A7A799A4213D156
:105350007B691B683869194601F00EFA03461A4644
:10536000FB88934208D17B691B68D3E90023B968A5
:10537000C1E90023012306E07B691B697B617B692E
:10538000002BDFD1002318461837BD4680BD00BF73
:1053900080B485B000AFF860B9607A60FB68002B1C
:1053A00011D0FB687A681A60BB689B089AB2FB68E8
:1053B0009A80FB689B887F2B02D9FB687F229A80AA
:1053C000FB687F22DA801437BD465DF8047B7047A6
:1053D00080B487B000AF7860084611461A4603468D
:1053E000FB700B463B801346BB707B68002B03D0E1
:1053F0007B681B68002B01D10023A6E0FB78002B03
:1054000008D03B881B029BB243F48032BB78134325
:105410007B6101E03B887B6100237B827B68DB88CA
:105420003B827F23FB817F23BB8110E07B8A01339A
:105430007B82FB89BB813B8AFB817B681A683B8A44
:105440009B0013449B78C3F34603DBB23B823B8A49
:105450007F2B11D07B681A683B8A9B0013441A7813
:10546000597809020A439B7803F001031B04134394
:105470001A467B699A42D9D13B8A7F2B38D17B6807
:105480009B887A8A9A4204D3FB893B82BB89FB8141
:1054900001E07B8A3B827B681A683B8A9B0013444D
:1054A0007A69C2F31002D1B2002001431970110AC7
:1054B000C9B2002001435970120C02F0010202F03F
:1054C00001009A7822F00102114602460A439A70BE
:1054D0007B681A683B8A9B0013440022DA707B6861
:1054E0001A683B8A9B001A44937843F0FE0393703A
:1054F000FB897F2B20D07B681A68FB899B001A44AC
:105500007B6819683B8A9B000B449B78C3F3460376
:10551000D9B2937861F3470393707B681A683B8A2A
:105520009B001A447B68DB88DBB203F07F03D9B2AF
:10553000937861F3470393707B683A8ADA807B68DB
:105540001A683B8A9B001344033318461C37BD4638
:105550005DF8047B704700BF80B400AF024B184673
:10556000BD465DF8047B7047A014002080B582B072
:1055700002AF0E4B00221A600C4B00221A710B4B2B
:1055800000225A71094B00229A71084B00221A819D
:1055900042F2107300930123019305480549064A1E
:1055A000002303F085F9BD4680BD00BFA014002094
:1055B000200A0020AC140020BD55000880B582B040
:1055C00000AF78600A4B1B681B680948094905222F
:1055D0009847094B1B680133074A136000200749AD
:1055E0001822054BFFF7B0FC0837BD4680BD00BF51
:1055F000AC13002034E60008A0140020F8E60008F0
:1056000080B584B002AF0020074901F0A1F87860AE
:1056100000230093054806497A68064B03F0F6F923
:105620000837BD4680BD00BFB8E70008200A00204B
:10563000C01400203956000880B5E8B000AF07F16B
:105640000C03186007F1080319603B1D1A6007F18D
:1056500008031B68C7F89C3107F1100318460021A6
:105660004FF4C47208F0B0FFFFF776FF024607F16F
:10567000100307CA83E8070007F110032233184616
:105680001021FEF74DFE144B1A7E07F110031A7419
:10569000114B5A7E07F110035A7407F110030322CD
:1056A0009A740D4B5A6907F110035A610A4BD3E9FA
:1056B000022307F11001C1E90623D7F89C311A78BB
:1056C00007F110031046D7F89C111A46FFF780FC2B
:1056D00007F5D077BD4680BD6031000880B582B047
:1056E00000AF786078680421002204F0E3F90346F3
:1056F00018460837BD4680BD80B586B002AF00238E
:10570000FB7334E0FB7B184601F062F80346002B84
:1057100027D15020FFF7E2FFB860BB68002B02D111
:10572000184805F03FFBBB68002B1CD0FB7B1846DC
:10573000154901F00DF87860BB68FA7B1A70BB68F8
:1057400000225A60BB6803F11C02BB6800930F483B
:1057500011467A680E4B03F059F9B868FEF712FB50
:1057600002E000BF00E000BFFB7B0133FB73FFF7EB
:10577000CBFC03461A46FB7B9342C3D31037BD468E
:1057800080BD00BFCCEC000858E70008200A0020CC
:105790006558000880B582B000AF78607B68083338
:1057A0000648194603F010F97B681C330348194674
:1057B00001F020F80837BD4680BD00BF200A002058
:1057C00090B58DB000AF7860786803F00DF9F8629D
:1057D000F86AFEF76BFB034683F00103DBB2002B94
:1057E00003D0F86AFFF7D6FF36E0F86AFEF7CAFA88
:1057F00007F1080318461021FEF792FD00233B76BF
:10580000FB6A5B68002B0CBF01230023DBB27B76B5
:10581000FB6A5B68C3F11003062B28BF0623DBB2CB
:10582000BB76FB6A5B6807F108021A44BB7E1C4624
:1058300007F11803033318461146224608F09EFE6E
:10584000FB6A1A7807F11803104605491822FFF77A
:105850007BFBFB6A00225A603437BD4690BD00BF17
:1058600058E7000890B58DB000AFF860B9607A6075
:10587000BB68FB62FB6A1033BB627B687B62786A41
:10588000FEF714FB034683F00103DBB2002B03D0C9
:10589000786AFFF77FFF36E0786AFEF773FA7B6A73
:1058A00000225A60FB6A1B7B002B2CD007F11403EB
:1058B00018461021FEF734FDBB6ADA1CBB6A9B78E0
:1058C0001C4607F1140318461146224608F046FE0E
:1058D0000346002B17D1BB6A9B780F2B08D8BB6AF5
:1058E0009B781A467B6A5A60786AFEF799FA0AE052
:1058F0007B6A1A78BB6A1B7810461946FFF7B4F822
:10590000786AFFF747FF3437BD4690BD80B584B055
:1059100000AFF8607B600B46FB721346BB7201F070
:10592000E3FFFA7ABB7AF86811461A467B6802F000
:10593000FDF801F0E1FF1037BD4680BD80B582B0B3
:1059400000AF78607B68002B0DD07B685B78002B04
:1059500009D07B681B695B687A68D26810469847F3
:105960007B6801225A700837BD4680BD80B584B07F
:1059700000AF7860396005F0F3FA7B68002B02D045
:105980003B68002B01D100231CE07B6830331846B4
:1059900004F044F9B860BB68002B01D1002311E08A
:1059A000BB6800229A613B68FB6003E0FB681B68F0
:1059B0001833FB60FB681B68002BF7D1FB68BA68E3
:1059C0001A60BB6818461037BD4680BD80B584B0EC
:1059D00000AF7860396001F087FF78683968FFF7B9
:1059E000C5FFF86001F088FFFB6818461037BD4618
:1059F00080BD00BF80B588B000AFF860B9603B6083
:105A00001346FB80FB68002B2FD001F091FF03466B
:105A10007B83BB681B68FB611BE0FB699B697B6147
:105A2000FB697A8B1A82FB69FA885A82FB699B6947
:105A3000002B03D1FB693A685A6102E0FB6900223E
:105A40005A61FB683C331846F96901F0ADFD7B698A
:105A5000FB61FB69002BE0D1BB6800221A60F8688B
:105A600000F060F9F86800F0CBF92037BD4680BD42
:105A700080B584B000AF786039607B68002B12D0AD
:105A80003B681B68FB6008E07B6830331846F968A8
:105A900004F020F9FB689B69FB60FB68002BF3D1E5
:105AA0003B6800221A601037BD4680BD80B58AB0C1
:105AB00002AFB9607A601A460346FB731346BB73A4
:105AC000FB7B184601F082FF0346002B01D0002328
:105AD00093E04C4804F0CEF878617B69002B01D14B
:105AE00000238AE04FF4E06001F03AFF38613B693F
:105AF000002B01D1002380E0BB7B032B01D90323C2
:105B0000BB737B69FA7B1A707B6900225A707B69D0
:105B100000229A707B690022DA707B6900225A6049
:105B20007B6900221A727B69BA68DA607B697A68DD
:105B30001A610023FB7709E0FB7F7A690233DB00FF
:105B4000134400221A72FB7F0133FB77FB7F022B89
:105B5000F2D97B69BA7B83F82C207B6930331846F5
:105B60001C21002204F018F87B693033184639698B
:105B7000402204F02FF87B693C33184601F0D0FC3A
:105B80007B6940331846002102F0F0FA7B6903F18B
:105B90004C0197F8283097F82C2002FB03F31A48A1
:105BA000142200F0AFFE7B6903F18C02BB7B164828
:105BB0001146042200F0A6FE7B6903F1CC024FF6E9
:105BC000FF730093002301930F4811460F4A7B692E
:105BD00002F06EFE7B690022C3F8E0200C4BBB6133
:105BE00003E0BB691B68E033BB61BB691B68002B2A
:105BF000F7D1BB697A691A607B6918462037BD46C0
:105C000080BD00BF000A00203C0A0020E55E0008BD
:105C10006C14002080B588B000AF786005F0A0F962
:105C20000023FB7700237B770023BB610023FB75F8
:105C300037E0FB7D7A680233DB0013441B7A002BCC
:105C400004D10123FB77FB7DBB7727E0FB7D7A68DE
:105C50000233DB0013441B7A012B07D0FB7D7A68EB
:105C60000233DB0013441B7A022B17D1FB7D7A68C9
:105C70000233DB0013445B68184601F0F7FD38611E
:105C80007B7F83F00103DBB2002B03D13A69BB6950
:105C90009A4201D93B69BB6101237B77FB7D0133CC
:105CA000FB757B6893F82C30FA7D9A42C1D3FB7F59
:105CB00083F00103DBB2002B30D17B683C33184604
:105CC00001F0B0FCF860FB68002B27D07B7F83F0ED
:105CD0000103DBB2002B06D1F86801F0C7FD0246D4
:105CE000BB699A421AD97B683C33184601F0A6FC7E
:105CF000BB7F7A680233DB001344FA685A60BB7FCB
:105D00007A680233DB00134401221A727B681B6934
:105D1000DB687A68D068FA68B97F98472037BD4653
:105D200080BD00BF80B582B000AF786001F0DCFDBF
:105D30007868FFF76FFF01F0DFFD0837BD4680BDD3
:105D400080B586B000AF786005F00AF901F0F0FD8B
:105D500003467B824FF6FF73FB8200237B751DE0B9
:105D60007B7D7A680233DB0013441B7A012B12D14E
:105D70007B7D7A680233DB0013445A687B8A1046C5
:105D8000194601F0FDFC03463B823A8AFB8A9A429F
:105D900001D23B8AFB827B7D01337B757B6893F864
:105DA0002C307A7D9A42DBD30023BB600DE0BA68C9
:105DB0007B8A1046194601F0E3FC0346FB81FA8911
:105DC000FB8A9A4201D2FB89FB827B6803F13C0289
:105DD00007F108031046194601F0F6FB0346002BB5
:105DE000E5D17B6803F1CC02FB8A044811461A46D0
:105DF00002F098FD1837BD4680BD00BF3C0A002068
:105E000080B582B000AF786001F06EFD7868FFF772
:105E100097FF05F0A7FC01F06FFD0837BD4680BD78
:105E200080B588B002AFF860B96011461A460B46DB
:105E3000FB711346BB8005F093F8BB685B69002BD0
:105E400017D0FB799BB2BB82BB88002B14BF012308
:105E50000023DBB2BB75FB6803F18C01BB685A6998
:105E600007F114030093084611460422054B00F085
:105E70005DFDFB6830331846B96803F00DFF183735
:105E8000BD4680BDA982000880B586B000AFF8602D
:105E9000B96011461A460B46FB711346BB80BB68BE
:105EA0005B69002B12D0FB799BB2BB82BB88002BB5
:105EB00014BF01230023DBB2BB75BB685A6907F12D
:105EC000140310460421064A02F036FAFB68303308
:105ED0001846B96803F0FEFE1837BD4680BD00BF06
:105EE000A982000880B586B000AF7860786802F0BB
:105EF0007BFD38610023FB752DE001F0F5FCFB7D97
:105F00003A690233DB0013441B7A012B1ED1FB7D5F
:105F10003A690233DB0013445B68184601F01AFC4F
:105F20000346002B12D03B691B699B683A69D16814
:105F3000FA7D0846114698470346002B06D0FB7DA4
:105F40003A690233DB00134402221A7201F0D4FCD6
:105F5000FB7D0133FB753B6993F82C30FA7D9A4247
:105F6000CBD307E001F0E4FC03463869F96800226E
:105F7000FFF78AFF3B693C33184601F0A1FBF8604C
:105F8000FB68002BEED13869FFF7CCFE3869FFF7CC
:105F900037FF1837BD4680BD80B582B000AF78604E
:105FA000084611461A460346FB700B46BB70134663
:105FB0003B8004F0D5FFFB787A680233DB001344A2
:105FC0001B7A012B0AD0FB787A680233DB0013447A
:105FD0001B7A022B02D00D4804F0E4FEFB787A68AD
:105FE0000233DB0013445968BA783B887868FFF7BE
:105FF00017FFFB787A680233DB00134400221A7221
:106000007868FFF707FE0837BD4680BD74EC0008CE
:1060100090B587B000AFF860B9607A6004F0A0FF77
:106020007B687B61BB683B617B695B683A6914464E
:106030000FCB84E80F007B691A883B691A821C37F2
:10604000BD4690BD80B588B002AFF8607B600B465E
:10605000FB7213463B8104F083FF3B893B827B68E4
:106060007B61FB6803F14C01FB6803F1400207F11F
:1060700010030093084611461422044B00F056FC0E
:10608000FB6801221A721837BD4680BD11600008F6
:106090002DE9B04F86B000AFF860F9680C464FF0BC
:1060A0000005204629464FEA810B4BEA907B4FEAD8
:1060B000800A504659464B0143EAD0634201121A06
:1060C00063EB0103A41845EB030522462B46990018
:1060D0007960796841EA9271796091003960D7E915
:1060E0000001801841EB030102460B464FEA0319F9
:1060F00049EA12794FEA021842464B4610461946C1
:10610000114A4FF00003121843EB010310461946E1
:106110000E4A4FF00003FDF7FFF802460B46C7E9B1
:106120000423D7E904234FF6FE704FF00001994293
:1061300008BF904202D2064804F034FE3B8A18465B
:106140001837BD46BDE8B08F3F420F0040420F00F8
:10615000A8EC000880B485B000AF78600023FB7322
:106160000BE0FB7B0A4A52F823207B689A4201D15C
:10617000012306E0FB7B0133FB73FB7B032BF0D990
:10618000002318461437BD465DF8047B704700BFF6
:1061900098EC000880B586B002AF384BFB60012355
:1061A000FB72374803F05CFB03469A785208D2B280
:1061B000D978C9010A431979C9030A435B79DB0518
:1061C00013431846FFF7C6FF0346002B10D02C4898
:1061D00003F046FB03469A785208D2B2D978C90137
:1061E0000A431979C9030A435B79DB051343FB6052
:1061F000234803F035FB03469B7803F00103DBB231
:10620000002B01D00023FB720023BB720DE0BB7A90
:106210001C4A52F82320FB689A4203D11A4ABB7ADF
:10622000137005E0BB7A0133BB72BB7A032BEED946
:1062300000237B6007E07A68FB7A1046194601224A
:10624000FB68FFF763FB3B1D184601F097FB034615
:10625000002BF0D1FB7A002B0CD00848FFF718FF79
:10626000034600930023019308480949094A002383
:1062700002F01EFB1037BD4680BD00BF40420F003C
:106280006031000898EC000870140020200A0020FB
:10629000741400209962000880B584B000AF786063
:1062A000204B1B780133DBB203F00303DAB21D4B42
:1062B0001A700123FB730023BB6019E0BB6818460A
:1062C00001F022FC0346002B05D0BB6818460021D4
:1062D00001F0B4FB0CE0BA68124B1B781946124B64
:1062E00053F821301046194601F0ECFB0023FB73F4
:1062F00007F10803184601F041FB0346002BDDD1EE
:10630000FB7B83F00103DBB2002B08D00748FFF7CB
:10631000BFFE0346064879681A4602F019FB10379B
:10632000BD4680BD7014002098EC000840420F006C
:10633000200A002080B483B000AF20237B607B68FC
:1063400083F311880C37BD465DF8047B704700BFAE
:1063500080B483B000AF00237B607B6883F3118837
:106360000C37BD465DF8047B704700BF80B500AFB9
:10637000FFF7E0FF04F064FD80BD00BF80B500AF13
:1063800004F074FD094B1B68084A93420AD0074B7E
:106390009B699A68054B1B689B689A4202D2044825
:1063A00004F000FDFFF7D4FF80BD00BF38130020CC
:1063B000C0EC00082DE9B04F86B000AFF860F96876
:1063C0000C464FF00005204629464FEA810B4BEA68
:1063D000907B4FEA800A504659464B0143EAD0630E
:1063E0004201121A63EB0103A41845EB0305224690
:1063F0002B4699007960796841EA92717960910041
:106400003960D7E90001801841EB030102460B46D1
:106410004FEA031949EA12794FEA021842464B46FD
:1064200010461946114A4FF00003121843EB0103BE
:10643000104619460E4A4FF00003FCF76DFF024666
:106440000B46C7E90423D7E904234FF6FE704FF04B
:106450000001994208BF904202D2064804F0A2FC13
:106460003B8A18461837BD46BDE8B08F3F420F0043
:1064700040420F00B4EC000880B582B000AF7860F5
:10648000396078683968002203F0D0FA034618466C
:106490000837BD4680BD00BF80B582B000AF7860D0
:1064A00078680421002203F005FB034618460837EC
:1064B000BD4680BD80B582B002AF002000F018F864
:1064C0000748FFF777FF0346009301230193054830
:1064D0000549064A002302F0EBF9BD4680BD00BF26
:1064E00040420F003C0A0020881400208950000818
:1064F00080B58CB002AF0346FB71FB79184601F002
:1065000065FAF861FB69002B00F091807420FFF7B9
:10651000C3FFB861BB69002B00F08980B869002116
:10652000742208F051F8BB69FA695A608020FFF7BD
:10653000B3FF78617B69002B79D0BB693033184693
:1065400080217A69FEF724FF4FF44070FFF7A4FF23
:106550000246BB69DA62BB69DB6A002B67D0BB69A4
:1065600003F10801BB69DA6A344B0093BB690193FC
:10657000084611464FF44072314B06F049FABB69A8
:106580005B68184601F042FA38613B69002B4ED037
:10659000BB6903F13802BB6900932A4811463A6986
:1065A000294B02F033FABB695B681846002101F001
:1065B00067FABB6900221A67244B7B6203E07B6A9F
:1065C0001B6870337B627B6A1B68002BF7D17B6A88
:1065D000BA691A60B869FEF7B3FD03461A46BB698B
:1065E0001A70002387F82330194803F039F9F8604E
:1065F000FB68002B0DD0FB689B79002B09D0FB6852
:106600009B79DBB25BB2002B03DBFB689B7987F8DD
:10661000233097F82330B8691946FEF701FA0D4B7D
:106620001B681B680B480C491822984702E00020A1
:1066300004F0B8FB2837BD4680BD00BF05530008F5
:10664000715200083C0A0020395000089C140020B8
:1066500060310008AC1300203CE6000880B483B031
:1066600000AF78607B68002B01D1002314E07B68C9
:106670001B68002B04D10B4B1A687B681A6004E07E
:106680007B681B681A6F7B681A607B681B68002B2D
:1066900014BF01230023DBB218460C37BD465DF85A
:1066A000047B70479C14002080B584B000AF7860F4
:1066B00039607B68002B01D1002342E0FFF756FED2
:1066C0007B68DB6EFB6002E0FB681B69FB60FB68BC
:1066D000002B04D0FB681A683B689A42F4D1FB682F
:1066E000002B04D0FFF74AFEFB68043329E017486B
:1066F00003F094FAF860FB68002B03D1FFF73EFE2D
:1067000000231EE0FB683A681A60FB6804331846F1
:10671000002101F02BFDFB6800221A617B686C33BD
:10672000BB6003E0BB681B681033BB60BB681B68C1
:10673000002BF7D1BB68FA681A60FFF71FFEFB68F1
:10674000043318461037BD4680BD00BF0C0A002038
:1067500080B582B000AF03463960FB71FB79184603
:10676000FEF7AEFC034618463968FFF79DFF034667
:1067700018460837BD4680BD80B483B000AF78604E
:1067800039603B68002B02D03B681B8900E0002386
:1067900018460C37BD465DF8047B704780B584B061
:1067A00000AF78607B68002B01D100230BE0FFF77E
:1067B000DDFD7B680833184606F086F90346FB7357
:1067C000FFF7DCFDFB7B18461037BD4680BD00BFE0
:1067D00080B582B000AF0346FB71FB791846FEF727
:1067E0006FFC03461846FFF7D9FF034618460837E3
:1067F000BD4680BD80B584B000AF786039603B682D
:10680000184601F015FD01F04BFF7B681433FB6067
:1068100003E0FB681B683033FB60FB681B68002BE0
:1068200004D0FB681A683B689A42F2D1FB681B6887
:10683000002B04D0FB681B681A6BFB681A6001F020
:1068400037FF1037BD4680BD90B589B000AFF86006
:10685000B9607A603B6004F083FBF868B96800F0C7
:1068600033FA0346002B02D0254804F09BFA7B68DC
:1068700008337B61BB687A681A60BB6804331846CA
:106880007969002203F088F9BB6803F110043B68C2
:106890009B00184601F06CFF02463B6820461146FB
:1068A0001A4604F081F9BB68FA689A630023FB6119
:1068B0000CE0BB681C1D786901F05AFF03462046B6
:1068C000194601F063FFFB690133FB61FA693B681C
:1068D0009A42EED3BB680022DA63FB681833BB61CF
:1068E00003E0BB691B683C33BB61BB691B68002BC1
:1068F000F7D1BB69BA681A602437BD4690BD00BFA6
:10690000C4EB000880B584B000AFF860B9607A606D
:106910003B6001F0C5FEF868B9687A683B68FFF72C
:1069200093FF01F0C5FE1037BD4680BD80B586B02F
:1069300000AFF860B9607A603B6004F011FBFB685F
:106940001A687B689A4201D200232CE0FB6804336A
:10695000184603F063F978617B69002B02D0BB68AD
:10696000002B01D100231EE07B69BA681A607B69A5
:106970007A685A603B68002B07D07B6903F10802F4
:106980003B68786811463A6A9847FB6803F1100241
:106990007B691046194604F03DF9FB689B6B18466D
:1069A00000F0CCF8012318461837BD4680BD00BF63
:1069B00080B588B000AF78607B681B68184601F02E
:1069C000A7FE7B685B68184603F0AAFC01F094FE02
:1069D00002467B689A6001F063FE7B689B69FB61FD
:1069E00001F066FE25E0FB681968FB685A68FB68E1
:1069F000083308461146484A01F09EFCFB691A1DFF
:106A0000FB681046194603F065F9FB6903F11002B3
:106A100007F10C0310461946002204F03BF9034627
:106A2000002BE0D001F03CFEFB69DB6BFB6101F069
:106A30003FFEFB69002BE8D101F032FE7B685B6909
:106A4000BB6101F035FE0EE0BB691846002101F084
:106A5000FFFC0346002B09D101F022FEBB691B6B32
:106A6000BB6101F025FEBB69002BEDD101F018FEE2
:106A700001F03AFE0346FB827B681A69FB8A1046E6
:106A8000194600F0F7F80346BB8201F011FEBB8AFD
:106A900001202249224AFDF741FB01F001FEBB8A99
:106AA000002B1CD17B681B693B613B691A697B68C1
:106AB0001A6101F0FDFD3B691B68386998473B6925
:106AC000FA8A5A813B691B7B002B84D001F0E8FDD8
:106AD0007868396900F08EF801F0EAFD7BE77868A4
:106AE00000F05EF90346002B02D001F0E1FD72E7F1
:106AF000786800F005F90346002B02D001F0D8FDBC
:106B000069E77B6803F10C02BB8A1046194603F063
:106B10003BFC01F0CDFD5EE7A982000854E60008C9
:106B200058E6000880B584B000AF78607B68FB60F1
:106B3000F868FFF73DFF1037BD4680BD80B582B0D5
:106B400000AF786004F00CFA7B680C3318464FF005
:106B5000FF3103F041FC0837BD4680BD80B582B0EF
:106B600000AF78607B680C3318464FF0FF3103F0BC
:106B700075FC0837BD4680BD80B485B000AFF860B5
:106B8000084611461A4603467B810B463B81134655
:106B9000FB71FB68BA691A60FB68FA695A60FB68A6
:106BA0003A891A81FB68FA791A73FB687A895A81E3
:106BB0001437BD465DF8047B704700BF80B584B0D4
:106BC00000AF7860396004F0CBF97B681B69FB602B
:106BD00008E0FA683B689A4201D1012306E0FB68AD
:106BE0001B69FB60FB68002BF3D1002318461037AC
:106BF000BD4680BD80B584B000AF7860396004F0D8
:106C0000AFF978683968FFF7D9FF0346002B02D047
:106C1000174804F0C7F83B681B894FF6FF72934290
:106C200022D03B685A893B681B8913447B817B686F
:106C30001033FB6003E0FB681B681033FB60FB68EC
:106C40001B68002B09D07B89FA68126852899B1A4D
:106C5000FA68126812899342EDDAFB681A683B6899
:106C60001A61FB683A681A601037BD4680BD00BFE4
:106C7000E8EB000880B584B000AF78600B467B80FD
:106C800004F06EF97B68002B17D07B681B894FF6E8
:106C9000FF72934211D07B685B897A88D31AFB819B
:106CA0007B681B89FA899A4201D3002307E07B683D
:106CB0001A89FB89D31A9BB201E04FF6FF7318467D
:106CC0001037BD4680BD00BF80B584B000AF78608E
:106CD000396004F045F97B689B69FB6008E0FA685D
:106CE0003B689A4201D1012306E0FB68DB6BFB6045
:106CF000FB68002BF3D1002318461037BD4680BD3A
:106D000080B584B000AF786004F02AF97B689B6995
:106D1000FB600CE0FB681033184601F009FD0346E8
:106D2000002B01D0012306E0FB68DB6BFB60FB68F6
:106D3000002BEFD1002318461037BD4680BD00BFA1
:106D400080B584B000AF7860396004F009F97B68E1
:106D50005B69FB6008E0FA683B689A4201D1012355
:106D600006E0FB681B6BFB60FB68002BF3D1002384
:106D700018461037BD4680BD80B584B000AF78603E
:106D8000396001F08DFC78683968FFF7D9FF034658
:106D9000FB7301F08DFCFB7B18461037BD4680BDB0
:106DA00080B584B000AF786004F0DAF87B685B6986
:106DB000FB600BE0FB68184601F064FA0346002B09
:106DC00001D0012306E0FB681B6BFB60FB68002B16
:106DD000F0D1002318461037BD4680BD80B483B083
:106DE00000AF20237B607B6883F311880C37BD469E
:106DF0005DF8047B704700BF80B483B000AF002310
:106E00007B607B6883F311880C37BD465DF8047B9B
:106E1000704700BF80B500AFFFF7E0FF80BD00BF47
:106E200080B500AFFFF7E8FF80BD00BF80B400AFC2
:106E30004FF080435B6A9BB21846BD465DF8047B09
:106E4000704700BF80B500AFFFF7F0FF034618465C
:106E500080BD00BF80B500AFFFF7DCFF04F01CF879
:106E600080BD00BF80B500AF04F02CF8FFF7D8FF5D
:106E700080BD00BF80B500AFFFF7E4FF03461846B2
:106E800080BD00BF80B582B002AF094B094A5A608D
:106E9000022300930323019300200549064A03239C
:106EA000FEF704FE0246024B1A60BD4680BD00BFDD
:106EB00064140020006400400CEC000880B58CB025
:106EC00000AFF8607B600B46FB721346BB72FB6839
:106ED000BB62844A834BDB6943F00073D361BB6AB6
:106EE0005A68BB6A5B68D3F800321B0C1B0443F082
:106EF0000103C2F80032BB6A5B680022C3F840227B
:106F0000BB6A5B680022C3F84422BB6A5B6800224C
:106F1000C3F80422BB6A5B680022C3F81422BB6A70
:106F20005B680122C3F80C22BB6A5B680122C3F8CC
:106F30001C22BB6A5B68BA6A5268D2F8002222F04F
:106F40000102C3F8002213200B2102F0B5F814202F
:106F50000B2102F0B1F816200B2102F0ADF8BB6A4C
:106F60005B6801221A6000E000BFBB6A5B685B6877
:106F700003F00103002BF7D07B685B4A934201D9F1
:106F80000A2300E0112387F82730584A7B68B2FBB8
:106F9000F3F33B6297F82730013B87F82E3009E086
:106FA00097F82E30022B40F2998097F82E30013B53
:106FB00087F82E3097F82E3001331A463B6AB3FB20
:106FC000F2F102FB01F29B1A002BE9D197F82E3067
:106FD00001331A463B6AB3FBF2F3FB61FB69002BFA
:106FE0007CD0FB69B3F5806F78D897F82E201346D4
:106FF000DB009B1A0333002B00DA0733DB1087F822
:107000002F304FF461737B837B68374A934202D9F8
:1070100040F2EE2301E040F252333B8397F82F30E9
:1070200001334FF47A7202FB03F297F82E300133EA
:1070300092FBF3F27B8B9A4204DB97F82F30013BF3
:1070400087F82F3097F82F3001334FF47A7202FB14
:1070500003F297F82E30013392FBF3F23B8B9A4206
:1070600004DA97F82F30013387F82F3097F82F3054
:1070700001334FF47A7202FB03F297F82E3001339A
:1070800092FBF3F27B8B9A4228DA97F82E2097F83E
:107090002F30D31AFB75BB6A5B68FA7A002A02D0DC
:1070A0004FF0004200E0002297F82F100139090448
:1070B0000A43F97D013909051143FA69013A0A4386
:1070C000DA61BB6A5B68BA7A002A01D0602200E00C
:1070D00070221A60BB6A5B6803225A613037BD4672
:1070E00080BD00BF001002403F420F00005125024A
:1070F00080B584B000AF78607B68FB60FB685B683C
:107100000B4A1A60FB685B6800225A61132002F088
:1071100001F8142001F0FEFF162001F0FBFF054AE4
:10712000044BDB6923F00073D3611037BD4680BD8B
:10713000020001000010024080B584B000AF78600A
:107140000B46FB707B68FB6003F00AFFFB78012BAA
:1071500009D0022B0ED0002B13D1FB685B68802274
:107160009A6001230EE0FB685B684FF400429A606E
:10717000012307E0FB685B684FF400029A6001237B
:1071800000E0002318461037BD4680BD80B586B0AC
:1071900000AFF8600B467A60FB72FB687B6103F01E
:1071A000DFFE7B695A68FB7A18331B0113443B618D
:1071B0007B681B78C3F38303DBB21A463B695A60D2
:1071C0007B689A683B699A607B68DA683B69DA6039
:1071D0007B681B7803F00203DBB2002B14D07B68C2
:1071E0005B68C3F31C03DA007B681B7803F00103C0
:1071F000DBB2002B01D0022300E00023134343F055
:1072000005023B691A6014E07B689B88C3F30A039C
:107210009BB25A057B681B7803F00103DBB2002B9D
:1072200001D0022300E00023134343F001023B6935
:107230001A60012318461837BD4680BD80B483B05C
:1072400000AF786039603B689A687B689A603B68F9
:10725000DA687B68DA603B681B6803F00203002B86
:1072600014BF01230023D9B27A68137861F30003B5
:1072700013703B681B6803F00403002B14BF012349
:107280000023D9B27A68137861F3410313707B68E5
:107290001B7803F00203DBB2002B0AD03B681B68AB
:1072A000DB0823F060417A68536861F31C03536084
:1072B0000BE03B681B685B0D9BB2C3F30A0399B2FA
:1072C0007A68938861F30A0393803B685B68DBB25A
:1072D00003F00F03D9B27A68137861F38503137052
:1072E0000C37BD465DF8047B704700BF80B58CB09D
:1072F00000AF7860FFF7BEFD0346FB85FFF7AAFDF0
:107300007B685B68DB6803F00303002B02D1FFF7A7
:10731000A9FD19E07B685B6803F5D87307F10C02DF
:1073200010461946FFF78AFF7B681968FA8D07F146
:107330000C0308460021FEF785FE7B685B6820226F
:10734000DA60FFF78FFDD9E7FFF784FD7B685B68A4
:107350001B6903F00303002B02D1FFF783FD19E043
:107360007B685B6803F5E07307F11C021046194661
:10737000FFF764FF7B681968FA8D07F11C03084664
:107380000121FEF75FFE7B685B6820221A61FFF730
:1073900069FDD9E73037BD4680BD00BF80B584B0F8
:1073A00000AF7860FFF766FD0346FB81FFF752FDF3
:1073B0007B685B689B6803F00103002B14D07B683B
:1073C00019687B685B689B6803F00203002B14BF9D
:1073D00001230023DAB2FB8908460021FEF7DCFD19
:1073E0007B685B6801229A607B685B689B6803F43A
:1073F0008073002B15D07B6819687B685B689B687D
:1074000003F40073002B14BF01230023DAB2FB89BD
:1074100008460121FEF7C0FD7B685B684FF480726F
:107420009A607B685B689B6803F48033002B15D0FF
:107430007B6819687B685B689B6803F40033002BEA
:1074400014BF01230023DAB2FB8908460221FEF7AC
:10745000A3FD7B685B684FF480329A60FFF702FD02
:107460001037BD4680BD00BF80B500AF03F040FDC2
:107470000348FFF793FF03F057FD02F079FC80BD4E
:107480006414002080B500AF03F032FD0348FFF71D
:107490002DFF03F049FD02F06BFC80BD6414002059
:1074A00080B483B000AF20237B607B6883F31188B6
:1074B0000C37BD465DF8047B704700BF80B483B0D5
:1074C00000AF00237B607B6883F311880C37BD46D7
:1074D0005DF8047B704700BF80B500AFFFF7E0FFA9
:1074E00003F0AEFC80BD00BF80B500AF03F0BEFC72
:1074F000094B1B68084A93420AD0074B9B699A685C
:10750000054B1B689B689A4202D2044803F04AFC70
:10751000FFF7D4FF80BD00BF3813002030EC000817
:1075200080B483B000AF78607B6800221A600123CA
:1075300018460C37BD465DF8047B704780B584B0B3
:1075400000AF7860396003F00BFD7868396800F0AF
:10755000C9F80346002B02D0124803F023FC386818
:1075600000F084F9B8607B68FB6003E0FB681B688F
:107570001833FB60FB681B68002B08D0FB681B6896
:10758000184600F073F90246BB689A42EED2FB68D7
:107590001A683B689A61FB683A681A601037BD4602
:1075A00080BD00BF1CEC000880B582B000AF7860E1
:1075B0003960FFF791FF78683968FFF7BFFFFFF781
:1075C00093FF0837BD4680BD80B582B000AF7860BC
:1075D000396003F0C5FC3B68002B02D1104803F072
:1075E000E1FB3B68002B01D1002314E03B681B68E2
:1075F000002B04D17B681A683B681A6004E03B6882
:107600001B689A693B681A603B681B68002B14BFB3
:1076100001230023DBB218460837BD4680BD00BFFA
:107620003CEC000880B582B000AF786003F098FCB5
:107630007B681B6818460837BD4680BD80B582B0A0
:1076400000AF786003F08CFC7B681B68002B04D0D3
:107650007B681B689A697B681A600837BD4680BDE5
:1076600080B584B000AF786003F07AFC0023FB6043
:107670007B68BB6003E0BB681B681833BB60BB68FA
:107680001B68002B0AD0BB681B68184600F062F824
:10769000034683F00103DBB2002BECD1BB681B680F
:1076A000002B07D0BB681B68FB60BB681B689A692E
:1076B000BB681A60FB6818461037BD4680BD00BF26
:1076C00080B584B000AF7860FFF706FF7868FFF7F9
:1076D000C7FFF860FFF708FFFB6818461037BD4684
:1076E00080BD00BF80B584B000AF786039600023F2
:1076F000FB6005E0FB683A689A4201D1012309E08A
:1077000007F10C0378681946FFF75EFF0346002B6C
:10771000F0D1002318461037BD4680BD80B400AFBD
:107720004FF080435B6A9BB21846BD465DF8047B10
:10773000704700BF80B500AFFFF7F0FF0346184663
:1077400080BD00BF80B500AFFFF7F4FF03461846C9
:1077500080BD00BF80B582B000AF7860FFF7F2FF58
:1077600003461A467B681B8AD31A7A68528A934268
:10777000CCBF01230023DBB218460837BD4680BDCD
:1077800080B485B000AF78600B467B807B685B8AF5
:107790004FF6FF72934202D14FF6FF7310E07B6801
:1077A0001B8A7A88D31AFB817B685B8AFA899A42A2
:1077B00001D9002304E07B685A8AFB89D31A9BB263
:1077C00018461437BD465DF8047B704780B485B019
:1077D00000AF78600023FB607B681B7803F0020336
:1077E000DBB2002B26D07B685B68C3F31C039B14C1
:1077F0005B051A46FB681343FB60FB6843F4801388
:10780000FB60FB6843F40023FB607B685B68C3F3A9
:107810001C03C3F311035B001A46FB681343FB60B0
:107820007B681B78C3F30003DBB21A46FB68134383
:10783000FB6013E07B689B88C3F30A039BB25B0584
:107840001A46FB681343FB607B681B78C3F3000395
:10785000DBB21B051A46FB681343FB60FB68DB4386
:1078600018461437BD465DF8047B704780B582B07A
:1078700000AF78607B681846FFF7A8FF03461846FC
:107880000837BD4680BD00BF80B483B000AF202361
:107890007B607B6883F311880C37BD465DF8047B01
:1078A000704700BF80B483B000AF00237B607B686B
:1078B00083F311880C37BD465DF8047B704700BF29
:1078C00080B400AF4FF080435B6A9BB21846BD4660
:1078D0005DF8047B704700BF80B500AFFFF7F0FF95
:1078E0000346184680BD00BF80B500AFFFF7CCFF50
:1078F00003F0A6FA80BD00BF80B500AF03F0B6FA72
:10790000094B1B68084A93420AD0074B9B699A6847
:10791000054B1B689B689A4202D2044803F042FA66
:10792000FFF7C0FF80BD00BF3813002068EC0008DF
:1079300080B500AFFFF7D0FF0346184680BD00BFFB
:1079400080B582B000AF786039607868396800220D
:1079500002F06CF8034618460837BD4680BD00BFEC
:1079600080B582B000AF786078680421002202F010
:10797000A1F8034618460837BD4680BD80B483B0E1
:1079800000AF78607B68002B01D1002315E07B6895
:107990001B68002B04D10C4B1A687B681A6005E049
:1079A0007B681B68D3F8E0207B681A607B681B68E3
:1079B000002B14BF01230023DBB218460C37BD4651
:1079C0005DF8047B704700BF6C14002080B485B064
:1079D00000AF0346FB710C4B1B68FB600AE0FB68C1
:1079E0001B78FA799A4201D1FB6807E0FB68D3F86B
:1079F000E030FB60FB68002BF1D100231846143700
:107A0000BD465DF8047B70476C14002080B582B0E1
:107A100000AF78607B68002B02D1074803F0C2F901
:107A20007B68002B01D1002301E07B6840331846BE
:107A30000837BD4680BD00BF54EC000880B582B059
:107A400000AF78600B46FB707B68002B14D0FFF70B
:107A50004BFF7B685B78002B0CD07B689B78FA78B7
:107A60009A4207D07B68DA787B685B68F978786837
:107A700000F05CF8FFF740FF0837BD4680BD00BF4F
:107A800080B582B000AF78600B46FB707B68002B3E
:107A900014D0FFF729FF7B685B78002B0CD07B6844
:107AA000DB78FA789A4207D07B6899787B685B68C4
:107AB000FA78786800F03AF8FFF71EFF0837BD46FD
:107AC00080BD00BF80B582B000AF786039607B6850
:107AD000002B16D0FFF708FF7B685B78002B0ED0D9
:107AE0007B685A683B689A4209D07B689A787B68C1
:107AF000DB78786811461A463B6800F017F8FFF704
:107B0000FBFE0837BD4680BD80B483B000AF78600F
:107B10007B68002B01D1002301E07B681B7A1846AB
:107B20000C37BD465DF8047B704700BF90B585B04B
:107B300000AFF8607B600B46FB721346BB7203F02C
:107B40000FFAFB68002B26D0FB685B78002B02D075
:107B5000F868FDF7F3FEFB681B691C68FB68D968D1
:107B6000FA7ABB7A084611461A467B68A047FB683A
:107B700001225A70FB68FA7A9A70FB68BA7ADA7056
:107B8000FB685A687B689A4202D0FB6800221A722E
:107B9000FB687A685A601437BD4690BD80B487B0E0
:107BA00000AFF860B9601346FB8000237B6126E0DC
:107BB000FA687B6913441B781B029AB2FB88534016
:107BC0009BB2FB8000233B6113E0FB881BB2002BC0
:107BD00009DAFB885B009BB283F4815383F00103D5
:107BE0009BB2FB8002E0FB885B00FB803B690133BA
:107BF0003B613B69072BE8DD7B6901337B617A6977
:107C0000BB689A42D4D3FB8818461C37BD465DF842
:107C1000047B704780B500AF04F092FE80BD00BFCA
:107C200080B500AF02F0DEF880BD00BF80B400AFC9
:107C30004FF080435B6A9BB21846BD465DF8047BFB
:107C4000704700BF80B500AFFFF7F0FF034618464E
:107C500080BD00BF80B500AFFFF7F4FF03461846B4
:107C600080BD00BF80B582B002AF48F2A063009330
:107C70000123019303480449044A002300F018FE3D
:107C8000BD4680BD200A00204C140020BD7D0008A8
:107C900080B584B000AF164B1B78FB73FFF7DAFF9B
:107CA0000346BB81BB89FA7B124912010A440832A0
:107CB00012889B1ABB60B868FBF7BCFE03461846E7
:107CC0000D49FBF70FFF03461846FBF705FB03467C
:107CD0007B60FB7B074A1B011344D3E90023074B5E
:107CE00003FB02F27B68134418461037BD4680BD83
:107CF00048140020281400200000C84240420F0011
:107D00002DE9B04F84B000AF294B1B78FB73FFF710
:107D1000A1FF0346BB81BB89FA7B264912010A44B5
:107D2000083212889B1ABB60B868FBF783FE0346D3
:107D300018462149FBF7D6FE03461846FBF7CCFA56
:107D400003467B60FB7B1B4A1B011344D3E9000104
:107D500002460B464FEA432B4BEAD25B4FEA422ADC
:107D600052465B465D0145EAD2655401A41A65EBB3
:107D70000305241845EB01054FEA851949EA946982
:107D80004FEA8418B8EB040869EB050910EB08000A
:107D900041EB09017B681A464FF00003121843EBD0
:107DA0000103104619461037BD46BDE8B08F00BF2D
:107DB00048140020281400200000C84290B585B067
:107DC00000AF7860274B1B78DBB25A1C264B134060
:107DD000002B03DA013B63F001030133FB73FFF770
:107DE00039FF0346BB81BB891E4A1278D2B21F49B4
:107DF00012010A44083212889B1ABB60FC7B194BA3
:107E00001B78DBB2194A1B011344D3E90001BB689C
:107E1000174AA2FB03235B0B1A464FF0000312180C
:107E200043EB0103114821010144C1E90023F97B1F
:107E3000BA680F4BA3FB02035B0B42F2107000FB0E
:107E400003F3D31A9BB2BA89D31A98B2074A0B012B
:107E50001344083302461A80024AFB7B137014371E
:107E6000BD4690BD48140020010000802814002069
:107E70005917B7D180B500AF084B1B68002B05D050
:107E8000064B1B6898470346002B01D0012300E0F6
:107E9000002303F00103DBB2184680BD601400200C
:107EA00080B485B000AFF860B9607A60FB68002BE1
:107EB0000ED07B68002B0BD0FB687A681A60FB68D9
:107EC000BA685A60FB6800229A60FB680022DA6098
:107ED0001437BD465DF8047B704700BF80B584B0A1
:107EE00000AF786039607B68002B03D07B681B682B
:107EF000002B01D100236CE03B680833BB607B683A
:107F00009B68002B08D07B689A687B689B685B68DD
:107F100008331344FB6002E07B681B68FB60FB686E
:107F2000033323F00303FB607868F968BA6800F054
:107F30009BF8034683F00103DBB2002B1BD07B6868
:107F40001B68033323F00303FB607868F968BA68A1
:107F500000F08AF8034683F00103DBB2002B01D066
:107F6000002336E07B68DB681A467B689B689A4290
:107F700001D900232DE07B68DB68002B0FD07B68E4
:107F8000DB681A46FB689A4209D37B68DB681946AE
:107F9000FA68BB681344994201D2002319E0FB68D8
:107FA00000221A60FB683A685A607B689B68002B65
:107FB00003D07B689B68FA681A607B68FA689A60ED
:107FC0007B68DB68002B02D17B68FA68DA60FB68AB
:107FD000083318461037BD4680BD00BF80B483B05B
:107FE00000AF78607B68002B03D07B68DB68002BD8
:107FF00001D1002302E07B68DB68083318460C37A8
:10800000BD465DF8047B704780B483B000AF7860F4
:108010007B68002B01D1002302E07B68083B5B6892
:1080200018460C37BD465DF8047B704780B483B0BA
:1080300000AF78607B68002B11D07B68DB68002B79
:108040000DD07B689A687B68DB689A4202D17B68B6
:1080500000229A607B68DB681A687B68DA600C37FC
:10806000BD465DF8047B704780B485B000AFF86012
:10807000B9607A60FB68002B17D0FB681B68002B87
:1080800013D0BB68FA6812689A1AFB685B689A4258
:108090000BD2BA687B681344FA6812689A1AFB68B4
:1080A0005B689A4201D8012300E0002303F001033A
:1080B000DBB218461437BD465DF8047B704700BF3D
:1080C00080B483B000AF20237B607B6883F311888A
:1080D0000C37BD465DF8047B704700BF80B483B0A9
:1080E00000AF00237B607B6883F311880C37BD46AB
:1080F0005DF8047B704700BF80B500AFFFF7E0FF7D
:1081000002F09EFE80BD00BF80B500AF02F0AEFE63
:10811000094B1B68084A93420AD0074B9B699A682F
:10812000054B1B689B689A4202D2044802F03AFE53
:10813000FFF7D4FF80BD00BF381300204CEB0008D0
:1081400080B584B000AFF860B9607A60FB68002B3E
:1081500008D07B68002B05D0FB681846B9687A68A0
:10816000FFF79EFE1037BD4680BD00BF80B483B0D0
:1081700000AF786039607B68002B0DD03B68002B26
:1081800001D1084B3B607B6800221A607B683A682B
:108190005A607B6800229A600C37BD465DF8047B0C
:1081A000704700BF580A002080B586B000AFF86065
:1081B000B9607A603B60BB68002B36D0BB685B68F7
:1081C000002B32D0FB68002B2FD0FB68BA681A60F6
:1081D000FB6800225A60FB6800229A60FB687A689C
:1081E000DA60FB683A681A61FB681833184602F0D7
:1081F00097FAFB680022DA62FB6800225A61FFF7F7
:108200007BFFFB680022DA62BB6808337B6103E016
:108210007B691B682C337B617B691B68002BF7D162
:108220007B69FA681A60FFF76FFF1837BD4680BD9B
:1082300080B584B000AF78607B68002B1ED0FFF75C
:108240005BFF7B681B680833FB6003E0FB681B680F
:108250002C33FB60FB681B68002B04D0FB681A689A
:108260007B689A42F2D1FB681B68002B04D0FB6844
:108270001B68DA6AFB681A60FFF746FF1037BD46D5
:1082800080BD00BF80B483B000AF78607B685B685E
:10829000002B14BF01230023DBB218460C37BD4668
:1082A0005DF8047B704700BF80B584B000AFF86014
:1082B000B9607A60B8687968FA6806F05FF91037D3
:1082C000BD4680BD80B584B000AF78607B681B6818
:1082D0009B68FB607B681B681A687B689A4224D1A4
:1082E0007B681B6800221A601FE0FB685A687B6885
:1082F0009A4217D1FB681833184602F02BFAFB6834
:108300005A687B689A4208D17B685A68FB685A6051
:10831000FB685B695A1CFB685A61FB681833184696
:1083200002F034FBFB68DB6AFB60FB68002BDCD1EE
:108330001037BD4680BD00BF80B588B000AFF86083
:10834000B9607A603B60FB68002B7CD0FB685B689F
:10835000002B78D0FB689B68002B74D0FFF7CCFE15
:10836000FB685B681A46BB68083310461946FFF77E
:10837000B5FDB861BB69002B19D1FB685B68184675
:10838000FFF72CFE78617869FFF79CFFFB685B685C
:108390001846FFF723FE02467B699A4204D1FB6828
:1083A0005B681846FFF742FEFFF7AEFED6E7BB69F3
:1083B000FA681A60BB6900225A607B68002B07D0FC
:1083C000BB6903F108027B68B86811463A689847B0
:1083D000FB681B68002B0BD0FB681A68BB699A42CC
:1083E00002D11A4802F0DEFCFB681B68BA695A60C9
:1083F000FB68BA691A60FB689B68FB6109E0FB696E
:108400005B68002B02D1FB69BA695A60FB69DB6AC1
:10841000FB61FB69002BF2D1FB689B68FB610DE0FF
:10842000FB699B68002B06D0FB699A68FB691046C4
:10843000194601F0F3FFFB69DB6AFB61FB69002B66
:10844000EED1FFF761FE2037BD4680BD58EB000836
:1084500080B582B000AF78600B467B803A1D7B8888
:10846000012011461A4600F005F803461846083761
:10847000BD4680BD80B588B000AFF860B9601346D6
:10848000FB80FFF739FEFB88F868B9681A4600F0F0
:1084900043F8F861FB69002B27D0FB6918331846B5
:1084A00002F058F9FFF730FEFB695B68BB61BB69FE
:1084B0005A68FB695A60FB69DB68002B0ED0B8690B
:1084C000FFF7A2FD0346083B7B61FB69DB68BA69E5
:1084D00002F10801FA69126978699847FB69183353
:1084E000184602F0CDF9012302E0FFF70DFE00234C
:1084F00018462037BD4680BD80B483B000AF786099
:1085000039607B68002B02D07B683A689A600C3730
:10851000BD465DF8047B704780B58CB000AFF86055
:10852000B9601346FB8002F02DFD0023FB621AE0C8
:10853000BB68002B14D0FB6A9B00BA6813441B680D
:10854000002B0DD0FB6A9B00BA6813441B685B6864
:10855000002B05D0FB6A9B00BA6813441B686BE0D4
:10856000FB6A0133FB62FA6AFB689A42E0D3FB883C
:10857000002B01D100235FE000237B610023BB625D
:1085800014E0BB68002B0ED0BB6A9B00BA68134492
:108590001B68002B07D0BB6A9B00BA6813441B689A
:1085A00007F114029A60BB6A0133BB62BA6AFB68C6
:1085B0009A42E6D307F11402FB881046194601F0EF
:1085C000E3FEB86100237B62BB69B3F1FF3F17D0C4
:1085D00000233B6210E03B6A9B00BA6813441A68B0
:1085E000BB699A4205D13B6A9B00BA6813441B6879
:1085F0007B623B6A01333B623A6AFB689A42EAD388
:108600000023FB6113E0BB68002B0DD0FB699B00CE
:10861000BA6813441B68002B06D0FB699B00BA683C
:1086200013441B6800229A60FB690133FB61FA69FD
:10863000FB689A42E7D37B6A18463037BD4680BD57
:1086400080B483B000AF20237B607B6883F3118804
:108650000C37BD465DF8047B704700BF80B483B023
:1086600000AF00237B607B6883F311880C37BD4625
:108670005DF8047B704700BF80B400AF4FF08043CB
:108680005B6A9BB21846BD465DF8047B704700BF2D
:1086900080B500AFFFF7F0FF0346184680BD00BF6E
:1086A00080B500AFFFF7CCFF02F0CAFB80BD00BF72
:1086B00080B500AF02F0DAFB094B1B68084A934211
:1086C0000AD0074B9B699A68054B1B689B689A42C6
:1086D00002D2044802F066FBFFF7C0FF80BD00BF76
:1086E0003813002098EB000880B500AFFFF7D0FFEB
:1086F0000346184680BD00BF80B400AF034B9B69A2
:108700001846BD465DF8047B704700BF3813002053
:1087100080B483B000AF7860044B9B697A689A613B
:108720000C37BD465DF8047B704700BF381300204E
:1087300080B582B000AF786002F012FC7B681B69E4
:1087400018460837BD4680BD80B584B000AF78605C
:108750003960FFF7A5FF78683968002201F066F9F3
:10876000F860FFF7A5FFFB6818461037BD4680BDCF
:1087700080B582B000AF786078680421002201F0F3
:1087800055F9034618460837BD4680BD80B582B00E
:1087900000AF7860396002F0E3FB7868396801F077
:1087A0007BFA0837BD4680BD80B584B000AFF86065
:1087B000B9607A60FB68002B02D10D4802F0F2FA32
:1087C000FB68BA681A60FB687A685A60FB68002226
:1087D0001A61FB6800225A61FB6800229A61FB68FB
:1087E00000229A60FB680022DA601037BD4680BD27
:1087F00070EB000880B58AB000AF786039607B68A4
:10880000002B02D1184802F0CDFA3B68C33323F0A5
:10881000070318460821FFF797FF78627B6A002B51
:1088200002D1114802F0BEFA7B681B68FB607B6ACC
:108830003B613B68C33323F00703DB08DB007A6A44
:1088400013447B617B685B68BB61084BFB617B68A1
:108850003B6207F10C03184603F06EF902467B6891
:108860009A602837BD4680BD84EB0008256B000860
:1088700090B587B002AFF860B9607A603B6002F0F3
:108880006FFBFFF731FF034619463A8C97F82440F7
:108890007B6800933B680193B8682346FEF76CF948
:1088A000F868B968FEF7A6F91437BD4690BD00BF59
:1088B00080B586B002AFF860B9607A603B60FFF7C0
:1088C000EFFE3B8B00933B7F0193F868B9687A68B1
:1088D0003B68FFF7CDFFFFF7EBFEF868FEF73EF9C8
:1088E0001037BD4680BD00BF80B586B000AFF860D0
:1088F000B9601346FB8002F033FBFFF7F5FE034639
:10890000FB82F868B96800F03BF8BB68FA881A8106
:10891000BB68FA8A5A81F868B968FEF76BF91837AC
:10892000BD4680BD80B584B000AFF860B960134625
:10893000FB8002F015FBFB88F868B9681A46FFF760
:10894000D3FFF868FEF7FAF81037BD4680BD00BFC8
:1089500080B584B000AFF860B9601346FB80FFF7C4
:108960009FFEFB88F868B9681A46FFF7BDFFFFF75E
:108970009FFEF868FEF7F2F81037BD4680BD00BFD5
:1089800080B584B000AF7860396002F0E9FA7B68A6
:108990001033FB6003E0FB681B681033FB60FB686F
:1089A0001B68002B04D0FB681A683B689A42F2D11E
:1089B000FB681B68002B04D0FB681B681A69FB6806
:1089C0001A601037BD4680BD80B582B000AF7860B8
:1089D0003960FFF765FE78683968FFF7D1FFFFF768
:1089E00067FE0837BD4680BD80B483B000AF7860B5
:1089F0007B68002B01D1002301E07B685B6818468F
:108A00000C37BD465DF8047B704700BF80B586B06B
:108A100000AFF860B9607A603B60F868B968FEF74B
:108A2000ABF90346002B02D0164802F0BBF9BB6835
:108A3000184679683A683B6AFFF7B6FBBA68FB6884
:108A40000C3310461946FFF757FDFFF729FEBB68A8
:108A500000221A63FB6814337B6103E07B691B68A7
:108A600030337B617B691B68002BF7D17B69BA6867
:108A70001A60FFF71DFEF868FEF770F81837BD465C
:108A800080BD00BFA4EB000880B584B000AF786063
:108A90000B46FB7013463B8001F02AFA0DE07A6822
:108AA0003B881046194601F041FAF860FB68002B3C
:108AB00003DA01F023FAFB6824E07B689B68002B53
:108AC000EDD07B689B685A1E7B689A607B685B6907
:108AD000591C7A685161FA781A707B685A697B6808
